:020000040800F2
:1000000010B5064C2378002B07D1054B002B02D0EE
:10001000044800E000BF0123237010BD040000204D
:10002000000000001C010008044B10B5002B03D099
:100030000349044800E000BF10BDC04600000000B6
:10004000080000201C01000870477047034B10B5E2
:10005000002B02D0024800F005F810BD000000009F
:1000600075000008002310B501001A00180000F008
:1000700015F810BD70B5074C074D641BA410002C7B
:1000800002D100F051F870BD013CA300EB58984735
:10009000F5E7C046400100083C010008F7B51C4FD9
:1000A00004003868160001930091FFF7CDFF194A4C
:1000B0001368002B01D1184B13605A6838681F2A47
:1000C00004DDFFF7C2FF01204042FEBD002C14D02A
:1000D000910059180F0088373E6001271E00974095
:1000E0008536FF367568FC313D437560019DCD60F6
:1000F000022C02D1B1683943B160511C59600232FF
:1001000000999200D150FFF7A0FF0020DDE7C04624
:10011000000000202400002028000020F8B5C04680
:10012000F8BC08BC9E467047F8B5C046F8BC08BC91
:040130009E46704730
:080134004D000008290000083D
:04013C0001000008B6
:04014000200000207B
:0400000508000000EF
:00000001FF
