:020000040800F2
:100000000080002005E3000891E30008D1D5000836
:1000100000000000000000000000000000000000E0
:1000200000000000000000000000000039E80008A7
:100030000000000000000000E9E80008C5D5000845
:1000400091E3000891E3000891E3000891E30008C0
:1000500091E3000891E3000891E3000891E30008B0
:1000600091E3000855D6000861D60008A1D6000823
:1000700091E3000891E3000891E3000891E3000890
:1000800091E3000891E3000891E3000891E3000880
:1000900091E3000891E3000891E3000891E3000870
:1000A00091E3000891E3000891E3000809D60008F5
:0C00B00019D6000829D6000891E30008CA
:1000BC0010B5064C2378002B07D1054B002B02D032
:1000CC00044800E000BF0123237010BD880A002003
:1000DC0000000000D4850108044B10B5002B03D0A0
:1000EC000349044800E000BF10BDC04600000000FA
:1000FC008C0A0020D485010802780B78002A03D0E2
:10010C00013001319A42F7D0D01A70470023C25CFB
:10011C000133002AFBD1581E7047000002B471460F
:10012C0049084900095C49008E4402BC7047C0462E
:10013C0003B47146490840004900095E49008E44E9
:10014C0003BC7047002243088B4274D303098B42D3
:10015C005FD3030A8B4244D3030B8B4228D3030C8B
:10016C008B420DD3FF22090212BA030C8B4202D32D
:10017C001212090265D0030B8B4219D300E0090A55
:10018C00C30B8B4201D3CB03C01A5241830B8B425E
:10019C0001D38B03C01A5241430B8B4201D34B0347
:1001AC00C01A5241030B8B4201D30B03C01A5241AC
:1001BC00C30A8B4201D3CB02C01A5241830A8B4231
:1001CC0001D38B02C01A5241430A8B4201D34B021A
:1001DC00C01A5241030A8B4201D30B02C01A52417E
:1001EC00CDD2C3098B4201D3CB01C01A5241830932
:1001FC008B4201D38B01C01A524143098B4201D36C
:10020C004B01C01A524103098B4201D30B01C01A96
:10021C005241C3088B4201D3CB00C01A5241830810
:10022C008B4201D38B00C01A524143088B4201D33D
:10023C004B00C01A5241411A00D20146524110469D
:10024C007047FFE701B5002000F0F0F802BDC04692
:10025C000029F7D076E7704703460B437FD4002282
:10026C0043088B4274D303098B425FD3030A8B423E
:10027C0044D3030B8B4228D3030C8B420DD3FF22A8
:10028C00090212BA030C8B4202D31212090265D076
:10029C00030B8B4219D300E0090AC30B8B4201D329
:1002AC00CB03C01A5241830B8B4201D38B03C01A70
:1002BC005241430B8B4201D34B03C01A5241030BE7
:1002CC008B4201D30B03C01A5241C30A8B4201D398
:1002DC00CB02C01A5241830A8B4201D38B02C01A43
:1002EC005241430A8B4201D34B02C01A5241030ABA
:1002FC008B4201D30B02C01A5241CDD2C3098B429F
:10030C0001D3CB01C01A524183098B4201D38B011B
:10031C00C01A524143098B4201D34B01C01A5241BE
:10032C0003098B4201D30B01C01A5241C3088B4203
:10033C0001D3CB00C01A524183088B4201D38B00EE
:10034C00C01A524143088B4201D34B00C01A524190
:10035C00411A00D201465241104670475DE0CA0F67
:10036C0000D04942031000D34042534000229C4627
:10037C0003098B422DD3030A8B4212D3FC22890131
:10038C0012BA030A8B420CD3890192118B4208D307
:10039C00890192118B4204D389013AD0921100E069
:1003AC008909C3098B4201D3CB01C01A524183097D
:1003BC008B4201D38B01C01A524143098B4201D3AA
:1003CC004B01C01A524103098B4201D30B01C01AD5
:1003DC005241C3088B4201D3CB00C01A524183084F
:1003EC008B4201D38B00C01A5241D9D243088B42A5
:1003FC0001D34B00C01A5241411A00D20146634648
:10040C0052415B10104601D34042002B00D54942AB
:10041C00704763465B1000D3404201B5002000F0EA
:10042C0005F802BD0029F8D016E770477047C046A2
:10043C008446101C62468C46191C634600E0C0467C
:10044C001FB501F07FFF002801D40021C8421FBD59
:10045C0010B501F0D7FE4042013010BD10B501F0CF
:10046C0071FF002801DB002010BD012010BDC0462B
:10047C0010B501F067FF002801DD002010BD012040
:10048C0010BDC04610B501F0F9FE002801DC0020BB
:10049C0010BD012010BDC04610B501F0EFFE0028C4
:1004AC0001DA002010BD012010BDC0468446081C96
:1004BC006146FFE71FB500F097FC002801D400212E
:1004CC00C8421FBD10B500F019FC4042013010BDF0
:1004DC0010B500F089FC002801DB002010BD0120C4
:1004EC0010BDC04610B500F07FFC002801DD0020D7
:1004FC0010BD012010BDC04610B500F027FC00282F
:10050C0001DC002010BD012010BDC04610B500F06C
:10051C001DFC002801DA002010BD012010BDC046D2
:10052C00002B11D1002A0FD1002900D1002802D0B4
:10053C000021C943081C07B4024802A140180290CC
:10054C0003BDC046E9FEFFFF03B4684601B502983F
:10055C0000F066F8019B9E4602B00CBC7047C0468A
:10056C00F0B5CE46474615042D0C2E0080B5070479
:10057C00140C3F0C9946030C7E435D436743634365
:10058C007F19340CE4199C46A54203D980235B02E5
:10059C009846C4444B4643435143250C36046544AA
:1005AC00360C2404A4195B19591820000CBC904675
:1005BC009946F0BD9E2110B5C905041CFFF7A6FF96
:1005CC00002803D1201C00F055FF10BD9E21201CDB
:1005DC00C90500F08BFD00F04DFF80231B069C46E7
:1005EC006044F2E770B500220C4B04000D00FFF7DD
:1005FC0053FF002804D12000290002F0E1FC70BD5B
:10060C00064B00222000290002F076F902F0D8FCFB
:10061C0080231B069C466044F1E7C0460000E04185
:10062C00F0B54F464646D646C0B5040082B00D0024
:10063C00914698468B422FD82CD04146484602F022
:10064C0055FE29000600200002F050FE331A9C468D
:10065C00203B9A4600D576E04B46524693401F000D
:10066C004B46624693401E00AF4228D825D05346D5
:10067C00A41BBD41002B00DA7BE00022002300927A
:10068C000193012352469340019301236246934008
:10069C00009318E08242D0D90022002300920193EB
:1006AC000A9B002B01D01C605D600098019902B080
:1006BC001CBC90469946A246F0BDA342D7D9002255
:1006CC000023009201936346002BE9D0FB07984668
:1006DC00414672080A437B0866460EE0AB4201D1E4
:1006EC00A2420CD8A41A9D41012024196D4100216D
:1006FC00013E24184D41002E06D0AB42EED9013EEE
:10070C0024196D41002EF8D1009801995346001917
:10071C006941002B23DB2B005246D3402A00644650
:10072C00E2401C0053461500002B2DDB26005746DB
:10073C00BE40330026006746BE403200801A994105
:10074C0000900191ACE7624620239B1A4A46DA409E
:10075C006146130042468A4017001F4380E76246F9
:10076C0020239B1A2A0066469A402300F340134329
:10077C00D4E76246202300219B1A002200910192AB
:10078C000122DA40019280E72023624626009B1A60
:10079C00DE402F00B0466646B74046463B0033432A
:1007AC00C8E7C046F8B54746CE4643025B0A44004C
:1007BC00C20F9C464800DD004B02240E5B0A000E63
:1007CC0080B5984626009146C90FDB00271A8A424D
:1007DC0029D0002F15DD00284AD1002B00D095E040
:1007EC00ED08FF2C00D188E06B025B0AE6B25B02DD
:1007FC00F605580A3043D20710430CBC9046994674
:10080C00F8BD002F00D087E0601CC0B2012800DCCE
:10081C00B6E0EE1A720100D5C5E0002E3DD10022E3
:10082C0000260023E3E7002F00DC96E000285DD0D3
:10083C00FF2C60D08022D20413431B2F00DDECE090
:10084C002022D21B18009340F8405A1E93410343B8
:10085C00ED186B017BD50134FF2C00D1B7E00122E0
:10086C0007262A406B089A4D1D4015432E4029E05F
:10087C00FF2CB5D08022D20413431B2F00DDB2E035
:10088C002022D21B19009340F9405A1E93410B436E
:10089C00ED1A6B015BD5AD01AE09300002F008FD1D
:1008AC0005388640844265DC041B3300202001346B
:1008BC00E340041BA640751EAE41334307261D00C2
:1008CC0000241E4001224B461A40002E04D00F2358
:1008DC002B40042B00D004356B0100D480E701348D
:1008EC00E6B2FF2C2FD1FF26002380E7002B52D13C
:1008FC00FF2C00D074E70A00ED08002DF3D0802304
:10090C00DB032B435B025B0AFF2670E7013F002FE2
:10091C00BED0FF2CB1D163E7002C47D0FF2869D0A3
:10092C008024E4047A4225431B2A00DDC5E02C0018
:10093C002026D440B21A95406A1E954125435D1B72
:10094C0004008946A5E7AB015B0A50E700240122AD
:10095C004B461A406B07BAD142E7002F3BD101340A
:10096C00E0B201284ADDFF2CBDD00726ED186D083A
:10097C002E40A7E70723574D241A35401E40A1E708
:10098C00002C1BD1002D6ED1002B00D19AE00A0057
:10099C001D003C0024E7013F002F00D158E7FF2C3D
:1009AC0000D04AE7A7E75E1B894676E7002D1CD1ED
:1009BC000A00FF281FD004001D0011E7002D5DD197
:1009CC00002B17D180230022DB03FF260FE70A0040
:1009DC00FF2600230BE7002C21D1002D66D1FF2828
:1009EC00E9D11D0087E7012352E77A1CA7D0FA430F
:1009FC00FF2899D10A001D00FF24F1E6002E21D119
:100A0C00002D4FD0002B4CD0ED186B019ED5314BE7
:100A1C0007362E4001241D4054E7012318E7FF2818
:100A2C00DFD08024E4047F4225431B2F4DDC20269D
:100A3C00F61B2C00B540FC406A1E95412543ED1871
:100A4C00040006E7002DCCD0002B00D153E7802109
:100A5C006046C903084203D04046084200D11D003D
:100A6C000121114047E7002B00D1B9E6EA1A5001E9
:100A7C0025D507265D1B2E40894623E7FF24002B36
:100A8C0000D1ADE680226046D203104204D040462D
:100A9C00104201D11D00894601224B46FF241A4009
:100AAC009EE62B00DD080A0000249DE67A1CC6D0C9
:100ABC00FF43FF28B9D11D001DE701253FE7151E97
:100ACC0000D044E70022002391E60125B7E7C04699
:100ADC00FFFFFF7DFFFFFFFBF8B557464E4645462F
:100AEC00DE464402E0B546008846640A360EC70F5F
:100AFC00002E63D0FF2E24D08023E400DB041C43A3
:100B0C00002399469B467F3E434642465D02D20FE8
:100B1C005B006D0A1B0E9046924665D0FF2B55D09C
:100B2C0080220021ED00D2047F3B1543F61A434688
:100B3C004A467B400F2A00D98DE06D4892008258BE
:100B4C009746002C54D108239946063BFF269B461A
:100B5C00DAE70025534602291BD0032900D1BFE058
:100B6C00012928D030007F30002820DD6A0704D00E
:100B7C000F222A40042A00D004352A0103D5300064
:100B8C005C4A80301540FE2803DCAC01640AC2B21A
:100B9C0001E0FF2200246402D205600ADB07104347
:100BAC0018433CBC90469946A246AB46F8BD012280
:100BBC00101A1B287CDD00220024ECE7002C1DD130
:100BCC0004239946033B00269B469DE7FF3E002DE0
:100BDC0020D1022143464A467B400A430F2AD8D8EB
:100BEC004548920082589746002D19D10121F1E712
:100BFC000C239946093BFF269B4685E7200002F013
:100C0C0057FB7626431F9C4000237642361A9946A2
:100C1C009B4679E74A4603231A439146032186E70C
:100C2C00280002F045FB431F36189D407636002104
:100C3C007DE780240023E403FF22ACE7002580231A
:100C4C00DB031C4228D01D4226D12B435C02640AD4
:100C5C004346FF229FE762016C01A24224D21B2172
:100C6C000025013E012710006D005200002801DB19
:100C7C00944201D8121B3D4301390029F3D11400D1
:100C8C00621E944125436DE7BA46594625005346EA
:100C9C00022900D061E77CE78023DB031C4364025C
:100CAC00640A3B00FF2276E7121B1A210125D9E7C3
:100CBC009E362A00B5402C00C240651EAC41144340
:100CCC00620704D00F222240042A00D004346201AF
:100CDC0003D4A401640A00225DE7012200245AE730
:100CEC008024E4032C436402640AFF2253E7C046C9
:100CFC00808C0108FFFFFFF7C08C010870B5420023
:100D0C004E024C0045026D0A120EC30F760A240ED9
:100D1C00C90FFF2A0FD0FF2C11D00120A24200D006
:100D2C0070BDB542FCD18B420DD0002AF8D1280001
:100D3C00451EA841F4E70120002DF1D1EBE701207D
:100D4C00002EEDD1E9E70020EAE7C04670B54A0075
:100D5C004E02450244006D0A240EC30F760A120E91
:100D6C00C90FFF2C15D0FF2A0ED0002C15D1002A4C
:100D7C0001D1002E1CD0002D14D08B4227D0022084
:100D8C00013B1840013870BD002EEED002204042CD
:100D9C00F9E7002DFAD1FF2A0ED0002A0ED1002E31
:100DAC00EDD00BE001230139994308000130EAE74B
:100DBC000020002DE7D0E2E7002EE7D18B42DED1F8
:100DCC00944205DD0221581E08400138DBE700245F
:100DDC00A24204DCB542D2D80020B542D3D2581E70
:100DEC00012398430130CEE730B5420044024D0256
:100DFC00C30F4800640A120E6D0A000EC90FFF2AB9
:100E0C0012D0FF280CD0002A12D1002819D1002DA5
:100E1C0017D1002C2BD00220013B1840013826E0C2
:100E2C00002DF0D0022022E0002CFBD1FF281FD097
:100E3C0000281FD1002D1DD10220013B1840013884
:100E4C0015E0002C0ED08B42E5D10022904204DC40
:100E5C00AC42E0D80020AC4209D2581E0123984382
:100E6C00013004E00123013999430800013030BD01
:100E7C00002DD7D18B42CED18242E7DD0221581E04
:100E8C0008400138F3E7C046F0B54E465746454694
:100E9C00DE46E0B543025B0A450083B00F1C994661
:100EAC002D0EC60F002D57D0FF2D24D08020DB0037
:100EBC00C0041843002381469A469B467F3D7C0222
:100ECC007A00FB0F640A120E984623D0FF2A4BD0EF
:100EDC00E30080240020E4047F3A1C43AD186B1C13
:100EEC0047460193534677403A000F2B48D87D492B
:100EFC009B00CB589F46002B00D085E008339A46C8
:100F0C00063B9B467C027A00FB0FFF25640A120EFF
:100F1C009846DBD1002C00D090E0524601231A43B6
:100F2C0092460120DBE74C4658461700022824D095
:100F3C00032800D1CFE00022002301284DD1580214
:100F4C00D205400AFF071043384303B03CBC90461F
:100F5C009946A246AB46F0BD002B5BD104239A46C2
:100F6C00033B00259B46AAE7FF35002C60D1524677
:100F7C0002231A4392460220B1E7FF220023DEE748
:100F8C004B461B0C9C464B462604360C18046146FB
:100F9C003300220C6446000C43434E4350435443ED
:100FAC0080191A0C1218964203D9802149028C46DA
:100FBC0064441B041B0C1004C01883015E1EB34157
:100FCC00800E1843130C1B199B0103431C002301B7
:100FDC0079D5012362081C401443019A7F32002A00
:100FEC004DDD630704D00F232340042B00D00434C1
:100FFC00230103D53C4B019A1C408032FE2ABCDCF9
:10100C00A3015B0AD2B29AE70C239A46093BFF254F
:10101C009B4654E7180002F04BF94A46431F7625CD
:10102C009A4000236D4291462D1A9A469B4646E7FC
:10103C00524603231A439246032050E7200002F045
:10104C0037F9431F2D1A9C40763D002047E780233B
:10105C000027DB03FF2272E7424666E74C4632006C
:10106C00584662E780234A46DB031A4222D01C42D0
:10107C0020D123435B025B0A4746FF225FE7012333
:10108C009A1A1B2A21DC23000199D3409E318C40F3
:10109C001A0023005C1EA34113435A0704D00F22ED
:1010AC001A40042A00D004335A0111D49B015B0A64
:1010BC00002244E780234A46DB0313435B025B0AAE
:1010CC003700FF223BE7019587E70022002336E734
:1010DC000122002333E78023DB0323435B025B0AFB
:1010EC00FF222CE7008D0108FFFFFFF7F8B54746FC
:1010FC00CE464400C20F80B547024802400A8446DF
:10110C00664648007F0A240EF60025009046FB0038
:10111C00000EC90FB146FF2800D185E001267140B1
:10112C00261A914257D0002E43DD002800D07FE0D4
:10113C004946002900D1AAE0013E002E00D0F7E07C
:10114C005B1A5A0100D48BE09B019C09200002F031
:10115C00AFF805388440854200DDD3E0451B230001
:10116C0020200135EB40451BAC40621E94412343CB
:10117C00072400251C40012241460A40002C04D0C3
:10118C000F211940042900D00433590100D480E008
:10119C000135ECB2FF2D00D0A3E0FF2400235B024D
:1011AC00E405580AD207204310430CBC90469946DC
:1011BC00F8BD002E74D1601CC0B2012800DCA7E081
:1011CC004A469C1A620100D5B6E0002CBED1002222
:1011DC0000240023E3E7002E00DC85E0002846D045
:1011EC00FF2C49D080224846D2041043814601226C
:1011FC001B2E09DC20204C46801B84404A462000D4
:10120C00F240441EA04102439B185A0128D50135D7
:10121C00FF2D00D1A8E00122072494491A405B0855
:10122C000B4013431C40A6E7002E00D078E775E76F
:10123C00FF2C54D080224946D20411438946012206
:10124C001B2E09DC20214846891B88404A46010098
:10125C00F240481E81410A439B1A5A0100D573E79C
:10126C00012241460A40590700D089E711E048465F
:10127C00002858D1FF2C0CD1DB08002B00D18CE7B7
:10128C008020C00303435B025B0AFF2487E7FF2C2B
:10129C0025D0DB08FF2DF0D05B025B0AECB27EE7B9
:1012AC00002C4DD0FF2818D08024E4047242234334
:1012BC001B2A00DDC4E01C002025D440AA1A934050
:1012CC005A1E934123434A460500D31A884638E7F1
:1012DC00721CF8D0F243FF28EAD10A004B46FF25D6
:1012EC00D7E79B015B0A5AE7002E41D1651CE9B296
:1012FC00012945DDFF2D00D14FE707244B445B0846
:10130C001C4038E707225A4B2D1A2340144032E771
:10131C00002C1DD1002B7AD14B46002B00D191E033
:10132C000A000025B5E7013E002E19D14B446CE7AD
:10133C00FF2C84D1FF25ACE74A468846D41A05E732
:10134C00002BC5D10A00FF28C8D005004B46A0E7EA
:10135C00002B49D14B46002B77D00A00FF2598E78C
:10136C00FF2C00D043E787E70A00FF24002316E791
:10137C00002C15D1002B57D1FF28E6D14B467BE72B
:10138C00002C20D1002B57D04946002953D04B4478
:10139C005A0168D50724364A1C4001251340EAE659
:1013AC00FF28EBD08022D204764213431B2E53DC51
:1013BC002025AD1B1A00AB40F2405C1EA341134329
:1013CC004B44050021E7002BD8D04946002900D119
:1013DC0052E78021C9030F4200D14DE76046084215
:1013EC0000D049E74B4647E74846FF25002800D187
:1013FC004FE78022D203174204D06046104201D13D
:10140C004B46884601224146FF250A4041E74846A3
:10141C0000281FD01A1A500120D54A460724D31A87
:10142C001C4088460025A6E6741CC9D0F643FF284C
:10143C00BCD14B4620E799464B460025DB082BE7F1
:10144C00012340E700220023A9E680230022DB03CE
:10145C00FF24A4E600251CE70123B1E7002AF1D004
:10146C0013000025FCE60025FAE6C046FFFFFF7DD1
:10147C00FFFFFFFB41024200C30F490A120E00207E
:10148C007E2A0DD99D2A0CD8802000040143952A70
:10149C000ADC9620821AD1404842002B00D1080069
:1014AC007047034A9818FBE7963A9140F4E7C04618
:1014BC00FFFFFF7F70B500283DD0C317C5185D40F6
:1014CC00C40F280001F0F4FE9E22121A962A07DCA3
:1014DC00D2B2082833DD083885406802400A23E080
:1014EC00992A0BDD052329001B1AD94003001B3355
:1014FC009D402B005D1EAB4119430D00052801DDFD
:10150C00431F9D402B000F490B406E0709D00F263F
:10151C003540042D05D004335D0102D59F220B40CC
:10152C00121A9B01580AD2B24002D205400AE407B3
:10153C001043204370BD002400220020F4E7680211
:10154C00400AF1E7FFFFFFFB70B5041E34D001F039
:10155C00AFFE9E22121A962A07DCD2B208282EDD84
:10156C00083884406002400A21E0992A09DD030012
:10157C0021001B3399404B1E994105231B1ADC405B
:10158C000C43052801DD431F9C4023000D490B40F3
:10159C00650709D00F252C40042C05D004335C01C1
:1015AC0002D59F220B40121A9B01580AD2B240025C
:1015BC00D205400A104370BD00220020F7E76002FC
:1015CC00400AF4E7FFFFFFFBF0B54F464646D64610
:1015DC000C000903C0B5490A470F5E0039431F03CD
:1015EC00DB0F9C4665007B0A570F1F436D0DE40F04
:1015FC00760DA146C000B846D200AB1B64457BD02B
:10160C00002B5FDD002E00D0A4E03E00164300D17D
:10161C0012E15E1E002E00D09EE1871A4346B842AE
:10162C0080410125C91A4042091A0B0200D431E14C
:10163C0049024E0A002E00D16EE1300001F038FE56
:10164C000300083B1F2B00DD61E120223900D21A78
:10165C009E40D1409F400E439D4200DD51E15D1BF9
:10166C006B1C1F2B00DD7CE12021C91A3D003000D2
:10167C008F408840DD40791E8F413100072228437E
:10168C00D940002507433A40002A09D00F233B409C
:10169C00042B05D03B1DBB42BF417F42C9191F0023
:1016AC000B0200D426E26A1CC64B55056D0D9A42FE
:1016BC0000D106E1C44AFF080A40530752023B43DB
:1016CC00120B8EE0002B00D0B8E06B1C5B055B0DA1
:1016DC00012B00DC30E1871A4346B842B641CB1AE5
:1016EC0076429E1B330200D54CE13B003343A1D123
:1016FC0000220024002570E0002B00DCE5E0002E29
:10170C0000D183E0AF4EB54260D08026360437431B
:10171C00B846382B00DC3EE1434613431F007A1ECB
:10172C0097413F1887428041404209180B0200D470
:10173C00B0E0A44B01359D4200D1C3E0A24A7B0826
:10174C000A4001210F401F435108D30707221F43B2
:10175C003A4099E79B4EB54238D080263604374341
:10176C00B846382B00DDDCE01F2B00DC30E11E001E
:10177C004746203EF740BC46202B04D04026F31AA7
:10178C0046469E403243170063467A1E97411F43DC
:10179C00CCE0002B00D104E24346134300D159E1C5
:1017AC004B07C00818438023C9081B03194208D0F3
:1017BC004546ED081D4204D14346D008590708435D
:1017CC002900420FC9007F4D1143C0004B07CA08C6
:1017DC007C49C00803438D4268D012036D05120B7F
:1017EC006D0D002112031800130B0A0D12051A437C
:1017FC00764B2D0513402B435B00E4075B0823431A
:10180C0019001CBC90469946A246F0BD3E001643FA
:10181C0012D05E1E002E00D000E187188742804156
:10182C0041444042091801250B0233D5022585E7B6
:10183C0064463300414610001D00C7E7002D00D060
:10184C00DAE00C000443F3D05C1C00D19FE15D4C4A
:10185C00A64200D12FE1DB43382B00DD66E11F2BC4
:10186C0000DD83E120240500E41A0F00DD40D9409F
:10187C00A0404346A7405B1A441EA04198462F4304
:10188C003843171ABA42924143465242991A644657
:10189C003500CAE607223A40002A00D0F6E64B078C
:1018AC00CA084849FF083B438D4296D119001143A1
:1018BC0000D19EE1802109030A431203120B414D12
:1018CC008FE71500002200238BE7002B00D0C7E028
:1018DC006B1C5F057F0D012F00DCF1E0394DAB4235
:1018EC0000D1B9E085180A00854289414244494239
:1018FC0051180722CF076D082F4349083A401D00A5
:10190C00C2E607223049ED1A31403A40BCE63E00AF
:10191C002838864000279FE6380001F0C9FC2030AB
:10192C008EE6434613431F007A1E9741C71BB842ED
:10193C0080414042091A78E60E003B0006431343EF
:10194C00002D61D1002E00D0F4E0002B00D11BE162
:10195C0064463900100039E71A4FBB427AD0330085
:10196C00FFE630001F3DE840202B03D04021CB1A6E
:10197C009E4037437B1E9F41072207433A4000217C
:10198C00002589E7171A4346BA42B641591A7642DE
:10199C008E1B64464EE61F2B00DDADE0202647462D
:1019AC00F61AB740B9461700B246DF404E463E43E2
:1019BC0037005646B240561EB24117434246DA40F3
:1019CC008918AEE6FF070000FFFF7FFFFFFF0F80C7
:1019DC0020264746F61AB740B9461700B246DF40F4
:1019EC004E463E4337005646B240561EB241174350
:1019FC004246DA40891A99E77F4CA6425BD0802494
:101A0C0024045B42214327E7002E0CD1002B00D18C
:101A1C00CBE0644639001000774DD7E6764FBB42D9
:101A2C0018D0330075E6002B14D04B07C0081843B0
:101A3C008023C9081B03194207D0FC081C4204D19F
:101A4C007907D0080843E14621004C46420FC900F3
:101A5C001143C000684DB9E61D0000220023C0E60A
:101A6C00002D5BD10D00054300D1E2E65D1C00D1D9
:101A7C00B0E0614DAE421FD0DB43382B71DC1F2B25
:101A8C0000DD96E020250F00ED1AAF40B9460700A7
:101A9C00AA46DF404D463D432F005546A840D9404D
:101AAC00451EA84188440743BF18974292415142B2
:101ABC00414435003AE6644635004146100085E65F
:101ACC000B000343002D00D063E6002BF5D04346FA
:101ADC00134300D17AE6871887428041072241449C
:101AEC00404209183A400B0200D4D5E6434B01356D
:101AFC001940C9E5380069E61E004746203EF7400C
:101B0C00BC46202B04D04026F31A46469E40324356
:101B1C00170063467A1E97411F4302E6364DAE42CC
:101B2C00CAD080252D045B422943A6E70843411EF9
:101B3C008841A6E6002B00D148E6871A4346B842F6
:101B4C00B641CB1A76429E1B33024BD5171A43462D
:101B5C00BA429241591A5242891A072264463A40B3
:101B6C0092E501430F00791E8F419DE71C000F0089
:101B7C00203CE740202B03D04024E31A9940084333
:101B8C00411E884138437CE60022002425E6171AC2
:101B9C004346BA429241591A5242891A6446350058
:101BAC0043E541461000144D10E680220024120338
:101BBC0080E61D000F00203DEF40BC46202B03D0DB
:101BCC004025EB1A9940084307006346781E87416D
:101BDC001F4369E7871897429B4141445B42C918F0
:101BEC003500A3E53B003343CED0072231003A4009
:101BFC0052E600231A00F4E5FF070000FFFF7FFF09
:101C0C00F0B55746DE464E464546E0B583460700DE
:101C1C000E03480085B092461C00360B400DCD0FCC
:101C2C00002800D19DE0954B984239D08023F600D6
:101C3C001B041E43924A7B0F334399469446030080
:101C4C006344009300230026FF00029323031B0B25
:101C5C0098466300E40F52465B0D019400D1B3E04B
:101C6C0086498B4200D19EE04246D100802212046C
:101C7C000A435146490F11438B46814952468C46C3
:101C8C0000996344CB1A0021D20000932B006340CF
:101C9C009A460F2E00D905E17A4BB6009B599F4608
:101CAC005B463343994600D0B8E002230826002750
:101CBC0000900293CAE7CB463A0002990195019B2A
:101CCC009A46022927D0032900D180E2012944D069
:101CDC006D49009B8C4663441C00002C38DD530777
:101CEC0000D013E2D2085B46DB0109D55946674B9D
:101CFC0019408B468021C9008C46009B63441C0014
:101D0C00634B9C4207DC5B4664055F075B02174331
:101D1C001B0B620D02E000230027584A00211B0315
:101D2C001C0B0B0D1B05234314055A4A380013409A
:101D3C001C4353466400DB0764081C43210005B0B8
:101D4C003CBC90469946A246AB46F0BD012252429D
:101D5C0001231B1B382B00DCADE1002200230027E4
:101D6C00DCE75B46334399465ED0002E00D18AE116
:101D7C00300001F09DFA03000B3B1C2B00DD7BE1D6
:101D8C001D22D31A5A460100DA4008398E4013003E
:101D9C005F46334399468F403F4B00261B1A0093F6
:101DAC000023029352E7414653460B433B499B4663
:101DBC008C46009B634400935B46002B3BD1022373
:101DCC0000221E43022161E7434613439B4637D052
:101DDC004346002B00D162E1404601F069FA030052
:101DEC000B3B1C2B00DD53E102004146083A9140AD
:101DFC0088461D21CB1A5146D9400B0041460B4356
:101E0C009B46534693401A00009B25499C466044D0
:101E1C0003008C4663440093002137E70323B1464B
:101E2C0000900C26029311E7002300930133042643
:101E3C00002702930AE70323C3461E43032125E729
:101E4C0001331E430022012120E700239A46802300
:101E5C0000271B03094A61E7802349461B031942EB
:101E6C0000D1E2E05946194200D0DEE00B431B03DF
:101E7C0017001B0BA246014A50E7C046FF070000A3
:101E8C0001FCFFFF408D0108FF030000FFFFFFFE78
:101E9C00FE070000FFFF0F800DFCFFFF01F8FFFFA6
:101EAC00F3030000D94500D9CBE000D1C6E03C00DB
:101EBC0048460027009B013B00935B46160E1B0215
:101ECC001E431302984633041B0C9946310C0191A6
:101EDC00FEF7BEF94A4642430B04210C0500194398
:101EEC008A4207D98919013D8E4203D88A4201D909
:101EFC00851E8919881A0199FEF7AAF909048C46DE
:101F0C004A46210464464243090C030021438A4299
:101F1C0004D98919013B8E4200D8F1E02D041D43F0
:101F2C00AB464346891A4246280C12041D0C5B46EC
:101F3C00140C22001B041B0C5A4303946B434443A4
:101F4C00029568431B19150CEB189C4203D980248D
:101F5C006402A44660441C0C15041B042D0C2018B0
:101F6C005D19814277D373D00C1AA24A7D1BAF4204
:101F7C00BF419446009B7F426344E01B1C00864299
:101F8C0000D1DBE00199FEF763F94A4642430B04AA
:101F9C00290C070019438A4207D98919013F8E423F
:101FAC0003D88A4201D9871E8919881A0199FEF72C
:101FBC004FF909044A46894629044D464243090C07
:101FCC00030029438A4207D98919013B8E4203D861
:101FDC008A4201D9831E89193F04891A3A00039F4A
:101FEC001A43380013041B0C584381460298150CF5
:101FFC006F43434345434846000C8446DB19634416
:10200C009F4203D9802040028446654448461F0CF9
:10201C0000041B04000C7D191818A94200D284E09E
:10202C0000D17FE001231A4357E680234A461B0365
:10203C0013431B031B0BAA466F4A6FE6BA4200D927
:10204C0035E74B46DC0758087B081C43FF0734E791
:10205C000024AF4289D247444745A4415B466442C1
:10206C00A4196418013BA6421ED2A0426DD800D11F
:10207C00B6E0241A9B4678E703005A46283B9A4060
:10208C000027914688E6584601F012F9203072E696
:10209C0003005246283B9A4093460022B4E6504631
:1020AC0001F006F920309AE6A642E2D1B845DCD917
:1020BC00341A9B4659E71F2B65DC504C0099A446FB
:1020CC005C46614408008C4011008240D940501E8F
:1020DC0082410C4314435A46DA401300620709D07C
:1020EC000F222240042A05D02200141D944289415B
:1020FC0049425B181A0262D50122002300270DE623
:10210C008A4200D80AE7831E891907E70F23134078
:10211C00042B00D1E6E5171D9742924153429B4494
:10212C00FA08E0E5002800D1D7E57118531EB1423A
:10213C0027D3A94215D358D01A0073E7002B00DC23
:10214C0004E6012300229B44CDE502234744474586
:10215C0089415B429C46494289190C19E344241A73
:10216C0003E743465F0047459B41B8465B429E19D7
:10217C00023A8919A94200D054E7404500D051E7F2
:10218C00ABE51A00F6E71F215F4649420C1BE740FE
:10219C00202B07D01A49009B8C46634418005B46E1
:1021AC0083401A43501E82413A43072700231740AD
:1021BC0009D00F21002311401400042995D12200CD
:1021CC005F075B021B0BD20817430022A6E5802396
:1021DC0059461B030B431B0317001B0B064A9DE5BB
:1021EC00BD42B2D89B460024BFE68045B9D31A0045
:1021FC00C3E7C046FF030000FF0700001E040000F9
:10220C003E040000F0B54F464646D6468446C0B55F
:10221C008046194E18030F034D00000B5C008246DC
:10222C003F0B6D0DC90F9146640DDB0F0120B542BC
:10223C000AD0B44203D0A54201D157450CD01CBCE6
:10224C0090469946A246F0BD66463E43F7D1AC4255
:10225C00F5D154461443F2D10120C845EFD199422F
:10226C0007D0002DEBD163461F433800471EB84101
:10227C00E5E70020E3E7C046FF070000F0B54F4656
:10228C004646D6464D00C0B50E03C90F8A462C49AA
:10229C001F035C008046360B6D0D91463F0B640DA1
:1022AC00DB0F8D421ED08C4216D0002D1ED1304338
:1022BC008446002C01D13A4323D06246002A1AD01E
:1022CC009A4529D0514602200139084001381CBCDE
:1022DC0090469946A246F0BD39001143E5D0022044
:1022EC004042F4E73043FAD1AC420FD0002C0FD16E
:1022FC003A43E7D00CE00122013B93431800013034
:10230C00E5E763460020002BE1D0DBE73A43E6D15A
:10231C009A45D7D1A542D5DCA54205DBBE42D1D822
:10232C0008D00020BE42D2D2504601230138984337
:10233C000130CCE7C845C5D80020C845F4D3C6E762
:10234C00FF070000F0B54F464646D6464D00C0B5D7
:10235C000E03C90F8A462E491F035C008046360BBC
:10236C006D0D91463F0B640DDB0F8D4218D08C42E6
:10237C0011D0002D18D130438446002C1ED13A4385
:10238C001CD163460020002B30D05146022001396D
:10239C00084001382AE039001143EAD0022025E038
:1023AC003043FBD1AC4226D0002C26D13A4324D169
:1023BC005146022001390840013817E06246002AD4
:1023CC000FD09A45E1D1A54205DBBE42DDD819D02C
:1023DC000020BE420AD250460123013898430130F6
:1023EC0004E00122013B9343180001301CBC9046D1
:1023FC009946A246F0BD3A43D0D19A45C5D1A542E3
:10240C00C3DCE0E7C845C0D80020C845E3D3EDE7FE
:10241C00FF070000F0B55746DE464E464546E0B590
:10242C00834606000F03480087B092461D003F0B01
:10243C00400DCC0F002800D16FE0DE4B984238D015
:10244C008023FF001B041F43730F3B430193DA4BA4
:10245C000027994600239B46F60081442B03690014
:10246C001B0B52469846490DED0F002900D185E013
:10247C00D04B994200D173E04346DA0080231B0411
:10248C0013435246CC48520F844613435246002005
:10249C006144D20089442100694000918C4601219D
:1024AC0049448A460F2F00D990E0C449BF00CF5948
:1024BC00BF465B463B43019300D06AE102230827E9
:1024CC00002681469B46C9E732005846019B61466F
:1024DC000091022800D175E0032800D1FEE101280B
:1024EC0000D02CE100230027002600253F032A0DF5
:1024FC003F0BB34812053A4302401B051343009AA5
:10250C005B00D1075B080B433000190007B03CBCE3
:10251C0090469946A246AB46F0BD5B463B430193C1
:10252C0000D12FE1002F00D1A5E1380000F0C0FE52
:10253C0003000B3B1C2B00DD96E11D22D31A5A46DF
:10254C000100DA405E4608398F4013008E403B4351
:10255C0001939C4B00271B1A994600239B467DE751
:10256C00414653460B4393498C46E144002B00D023
:10257C001AE102220220174300228CE7134300D1F8
:10258C000DE14346002B00D181E1404600F090FE66
:10259C0002000B3A1C2A00DD72E1010043460839A7
:1025AC008B4098461D239A1A5346D3401A00434633
:1025BC00134352468A404946081A82498946814447
:1025CC00002068E77B4B002700268EE7140C1204D2
:1025DC00120C1100370C3604350C794328008C464C
:1025EC002E0060436044834656432100300C8046E5
:1025FC005846794340440291844506D98846802147
:10260C0049028C46E044414602913604010C360CDA
:10261C0000048B4681191E0C1B041B0C0391190022
:10262C0079438C46280075436544A8465843050CED
:10263C0045447743A94203D9802149028C4667441B
:10264C00290C8C4639000004000C2D042D18614413
:10265C00AB4405915946049101990F043F0C080CA9
:10266C00390051434243904602008C46090C8B467C
:10267C0062437C4344445C44A04503D98021490215
:10268C0088464244210C884661460904090C8C4654
:10269C0039005943434370437E430F0CF61824040E
:1026AC00BE19644442448C46B34203D980235B0276
:1026BC0098464044029B61469846049B3704434429
:1026CC009B46AB45AD416B420D0405992D0C8C46D8
:1026DC007F196744FD18A8465D462D19A542A441F3
:1026EC0093466442A446C344DC448F42BF419845A0
:1026FC009B4193459241A445A4415B427F421F43B9
:10270C00360C52426442BF192243BF186246381835
:10271C004302D20D039913436A020A43501E8241AD
:10272C006146ED0D2A434E023243D90100D4B3E089
:10273C000126500832400243DE0732435B08224C2C
:10274C005444002C62DD510709D00F20104004289E
:10275C0005D0101D9042924152429B180200D901A3
:10276C0004D580241948E40003405444184884429A
:10277C0000DD27E75E075B02D2081F0B63051643DB
:10278C005B0DB2E6002399460133042700269B46D5
:10279C0064E60323019781460C279B465EE60122E3
:1027AC0001201743002276E6032303201F434346F0
:1027BC0071E6C046FF07000001FCFFFF808D010899
:1027CC00FFFF0F800DFCFFFFFF030000FFFFFFFE6C
:1027DC00FE0700000023802700933F030026434B95
:1027EC0083E6019B3200A446584670E6AC466EE682
:1027FC00802701993F0339422DD03B422BD11F43F7
:10280C003F033F0B00951600384B6EE601252D1B40
:10281C00382D00DD66E61F2D40DC35481C00504489
:10282C00160082408440EE40501E824134431443D3
:10283C00EB40620709D00F222240042A05D0220067
:10284C00141D9442804140421B181A023ED50123AC
:10285C000027002649E68027019B3F031F433F03C7
:10286C003F0B0094214B40E603005A46283B9A400C
:10287C00002601926DE6584600F01AFD203057E60E
:10288C0003005246283B9A401300002293E6504620
:10289C0000F00EFD20307BE6CA4650E71F201E00DC
:1028AC004042041BE640202D03D0124C5444A3405C
:1028BC001A43501E8241324307260027164009D086
:1028CC000F200023104014000428B9D122005E0709
:1028DC005B021F0BD2081643002306E680273F033A
:1028EC001F433F033F0B1600004BFEE5FF070000A4
:1028FC001E0400003E040000F8B557464E464546FF
:10290C00DE460C000903E0B5490A460F5F0031436F
:10291C001E03DB0F760A9B46530F3343C84E6500EC
:10292C00C000E40FD2006D0DA24681467F0D9C467F
:10293C009046B74200D1B9E05B46012673409B46F6
:10294C00EE1BA34500D183E0002E63DD002F00D0E9
:10295C00B1E06346134300D123E1731E002B00D07A
:10296C00BAE1861A6346B04280410125C91A404239
:10297C00091A0B0200D447E149024B0A9846434618
:10298C00002B00D189E1404600F092FC0300083B8B
:10299C001F2B00DD7CE120223000D21A4146D040B2
:1029AC00994002009E400A439D4200DD6AE15D1B96
:1029BC006B1C1F2B00DD94E1202110003500C91A7F
:1029CC008E40DA408840DD40711E8E411100072296
:1029DC002843002506433240002A09D00F233340F8
:1029EC00042B05D0331DB342B641764289191E0023
:1029FC000B0200D43DE26A1C914B55056D0D9A42B9
:102A0C0000D119E18F4AF6080A40570752023743A2
:102A1C00120B9BE0002E00D0C5E06E1C7605760DE7
:102A2C00012E00DC48E16746861ACB1BB042BF4141
:102A3C007F42B8461F004346FF1A3B00B8461B02B4
:102A4C0000D55FE137439AD100220024002579E0BC
:102A5C00002E00DCFAE0002F00D18DE0784B9D4277
:102A6C0067D0802367461B041F43BC46382E00DC0E
:102A7C0052E1634613435A1E93411E18864280410D
:102A8C00404209180B0200D4BEE06D4B01359D424B
:102A9C0000D1D2E06B4A73080A4001210E401E435C
:102AAC005108D30707221E43324095E71E001643F8
:102ABC0000D045E740E7624B9D423AD08023674601
:102ACC001B041F43BC46382E00DDEBE01F2E00DC40
:102ADC003AE133006746203BDF403B00202E05D017
:102AEC004027BF1B6646BE40324390464646721E88
:102AFC0096413343DAE0002B00D114E263461343D2
:102B0C0000D168E180234E07C008C9081B030643A7
:102B1C00194208D06046C008184204D1634601002F
:102B2C00D2085E071643F3009946C900720F444D54
:102B3C0011434B46DE08424B4F073743CA089D42B0
:102B4C0000D16EE012036D05120B6D0D0021120306
:102B5C00130B0A0D12051A433B4B2D0513402B4347
:102B6C005B00E4075B082343380019003CBC90462B
:102B7C009946A246AB46F8BD6346134311D0731E6B
:102B8C00002B00D007E18618864280416144404208
:102B9C00091801250B0237D502257BE73E0061465B
:102BAC0091463500C5E75C46002D00D0E1E00B00F6
:102BBC000343F3D0731C00D1ACE1214B9F4200D1F5
:102BCC003AE1F343382B00DD6FE11F2B00DD8CE184
:102BDC0020250E00ED1AAE40B0460600AA46DE4097
:102BEC00454635432E005546D940A8406346451E00
:102BFC00A8415B1A9C463043161AB2429241634676
:102C0C005242991A3D00B4E607223240002A00D005
:102C1C00E4E60B4BF6084F073743CA089D4200D039
:102C2C0090E73B00134300D1A6E180231B031A431A
:102C3C001203120B024D89E715000022002785E7CD
:102C4C00FF070000FFFF7FFFFFFF0F80002E00D06B
:102C5C00C7E06B1C5E05760D012E00DCF0E0C84D64
:102C6C00AB4200D1B9E085180A0085428941624423
:102C7C00494251180722CE076D082E4349083240AD
:102C8C001D00A9E6BF49ED1A114007223240A3E608
:102C9C00320028388240002686E6300000F008FB1F
:102CAC00203073E6634613435A1E9341C61AB04252
:102CBC0080414042091A5CE60E0067460643174302
:102CCC00002D5ED1002E00D0F3E0002F00D11EE1CC
:102CDC005C46614691462CE7A94FBE427BD01E0054
:102CEC00F1E610001F3DE840202B03D04021CB1A09
:102CFC009A401643731E9E41072206433240002120
:102D0C00002583E7161A6346B2428041591A4042A5
:102D1C000B1A98465C4632E61F2E00DDABE02027EE
:102D2C00BB1B9A4663465746BB40994613004F4619
:102D3C00F3401F433B005746BA40571EBA4113435A
:102D4C006246F240891898E62027BB1B9A466346D8
:102D5C005746BB40994613004F46F3401F433B0078
:102D6C005746BA40571EBA4113436246F240891A7D
:102D7C009CE7834B9F425FD080252D0473422943EF
:102D8C0020E7002E0CD1002F00D1D0E05C4661462C
:102D9C0091467B4DCDE67A4FBE421CD01E0065E6B7
:102DAC00002F18D0C0084E0706438020C908000326
:102DBC00014208D06346DC08044204D12100DA4603
:102DCC00D2085E071643F300994601245346C90006
:102DDC00720F11431C406A4DABE61D000022002708
:102DEC00B4E6002D59D10B00034300D1D6E6731C79
:102DFC0000D1B2E0624B9F421ED0F343382B6FDC04
:102E0C001F2B00DD97E020250E00ED1AAE40B046DA
:102E1C000600AA46DE40454635432E005546A840DE
:102E2C00D940451EA8418C440643B618964292419F
:102E3C00514261443D0025E63D006146914678E6ED
:102E4C000B000343002D00D055E6002BF5D0634654
:102E5C00134300D16DE6861886428041614440429E
:102E6C00091800220B0200D4D0E6464B013519405C
:102E7C00B2E5B1465DE633006746203BDF403B00E0
:102E8C00202E05D04027BF1B6646BE4032439046DD
:102E9C004646721E96413343EFE5394B9F42CBD0E9
:102EAC0080252D0473422943A8E70843411E88411D
:102EBC00A2E6002F00D13CE66346861ACF1AB04238
:102ECC009B415B42FB1A98461B024ED5161A634671
:102EDC00B2429241591A5242891A5C4600227BE551
:102EEC0001430E00711E8E419FE71D000E00203D18
:102EFC00EE40B046202B04D04025EB1A99400843F5
:102F0C00814648464346411E8841184374E60022D8
:102F1C00002417E6161A6346B2429241591A5242DD
:102F2C00891A3D0025E561469146154D01E6802242
:102F3C000024120379E61D000E00203DEE40B04641
:102F4C00202B04D04025EB1A9940084381464E466D
:102F5C004346711E8E411E4367E7861896429B417D
:102F6C0061445B42C9183D008CE547463743CED0DF
:102F7C0007224146324049E600273A00E6E5C046C2
:102F8C00FF070000FFFF7FFF70B50C4E0D031C0305
:102F9C0049005B002D0B490D240B5B0DB14208D091
:102FAC00064900208B4203D114432000441EA0414B
:102FBC0070BD05430120002DFAD1F1E7FF07000099
:102FCC0030B5144D0A034B00120B5B0DC90F0024D6
:102FDC00AB4211DD104CA34210DC8024640322436D
:102FEC000E4CE41A1F2C0CDD0D48C31ADA401300EA
:102FFC005C42002900D11C00200030BD094BCC18CC
:10300C00FAE7094DE040AC4663449A401300034391
:10301C00EEE7C046FE0300001D0400003304000070
:10302C0013040000FFFFFF7FEDFBFFFF70B50028CE
:10303C002DD0C317C5185D40C40F280000F038F917
:10304C00154B1B1A5B055B0D0A2815DD0B388540EB
:10305C0000222D032D0B002110002D030A0D2D0B2A
:10306C0012052A430D4D1B052A4013435B00E40750
:10307C005B082343190070BD0200290015329140F2
:10308C000A000B21081AC5402D032D0BE3E7002481
:10309C00002300250022DEE71E040000FFFF0F8046
:1030AC0010B5041E25D000F003F9144B1B1A5B0558
:1030BC005B0D0A2812DD0B38844000222403240BFC
:1030CC000021100024030A0D240B120522430C4C82
:1030DC001B05224013435B00590810BD0200210060
:1030EC00153291400A000B21081AC4402403240B0A
:1030FC00E6E7002300240022E2E7C0461E0400009D
:10310C00FFFF0F804100090E4B1C70B5DBB246026D
:10311C00750AC40F012B14DDE0239B006D07360BE1
:10312C00CB1800210A0D280012051C4D32435B05FB
:10313C002A405B0813435B00E4075B082343190038
:10314C0070BD002914D1002D1ED0280000F0B0F85D
:10315C000A281CDC0B232A001B1ADA400300153347
:10316C009D400F4B12031B1A5B05160B5B0DD8E72A
:10317C00002D06D0320B802636036D071643094B03
:10318C00CFE7084B0026CCE700230026C9E7030055
:10319C002A000B3B9A400025E3E7C046FFFF0F8057
:1031AC0089030000FF070000F0B54C00640D0B0311
:1031BC00621C5B0A460F5205C90F1E43C500520D17
:1031CC00012A29DD374BE718FE2F1CDC002F3BDDD5
:1031DC008001431E98410722F3006D0F03432B43DC
:1031EC001A40002A04D00F221A40042A00D00433BB
:1031FC008022D2041A4024D00137FAB2FF2F02D019
:10320C009B01580A01E0FF2200204002D205400A2F
:10321C00C90710430843F0BD3543002C04D1002DE1
:10322C000AD100220020F0E7002DECD08020C00352
:10323C003043FF22E9E7002400235B02580AE2B284
:10324C00E3E7DB083C00F8E73B001733F3DB8023B4
:10325C001B0433431E26F61B1F2E14DD0222524282
:10326C00D71B1A00FA401700202E04D00E4A9446A1
:10327C006444A3401D432B005D1EAB4107223B431E
:10328C001A400027ADE7094A2800A2189540934040
:10329C006C1EA541F04007222B4303431A40002724
:1032AC009FE7C04680FCFFFFA2FCFFFF82FCFFFFF4
:1032BC001C2101231B04984201D3000C10391B0A5A
:1032CC00984201D3000A08391B09984201D300091E
:1032DC00043902A2105C40187047C0460403020275
:1032EC0001010101000000000000000010B50029E0
:1032FC0003D1FFF7DDFF203002E0081CFFF7D8FFF9
:10330C0010BDC046F0B5C64600B506000D0090468F
:10331C001C000AF03FFF00281CD0124BB200D05802
:10332C0021000BF0A9F8002814D14346002B11D032
:10333C00002430000AF02EFF290001220FF0E2FDDC
:10334C0001340700E4B2022001350CF0EFFE4445D5
:10335C00EFD300E001270A200CF0E8FE380004BC93
:10336C009046F0BD646B0020F0B5224B224A1B88BE
:10337C0083B09BB2934235D01E0A2CD01F4AF6B2B2
:10338C0016701F4A13706B46D91D002302220124AC
:10339C009C461C4D63460B700B780A2B14D8631E8D
:1033AC009800C0184000C018124BD7180B783F88F3
:1033BC00C3185B00EF520B7802320133DBB20B7097
:1033CC000B7892B20A2BEFD90134E4B2B442E1D9B2
:1033DC00002003B0F0BD0121084A01261170084AF3
:1033EC001370D0E70122054BFA201A700022044B0F
:1033FC001A70EEE700D80108FFFF00001000002053
:10340C00A80A00201C0F0020F0B5C64600B50F4ED0
:10341C003378002B16D00023012498460C4F611EE4
:10342C004900651C7918A8B208F0AAFC192C01D91E
:10343C000A2398463378ECB2A342F0D2404604BC3F
:10344C009046F0BD00239846F8E7C04610000020D7
:10345C0060700020F0B54E46DE4657464546E0B556
:10346C0083B06B469E1D002333809846174B1C245B
:10347C009A46174B9B4643469F00FD18631D9BB213
:10348C0099466D0055442000310008F079FC3388D2
:10349C0001346B70A4B21B0A2B7002354C45F2D16F
:1034AC00002347447F0057447B7243460133DBB211
:1034BC0098465B461B784345DDD2002003B03CBCEC
:1034CC0090469946A246AB46F0BDC0460C0E002075
:1034DC0010000020F0B54646D6464F46C0B582B027
:1034EC006B469E1D0023224C338023780025002B35
:1034FC003AD0204B002199461F1D28004900CB30A3
:10350C00791880B2013508F03BFCADB22378E9B2F2
:10351C008B42F2D838232C00CB359C46ABB2984664
:10352C0000239A469934E144A4B24D46671DBFB2BC
:10353C002000310008F024FC338801346B70A4B2F5
:10354C001B0A2B700235BC42F2D14B4652465A72C2
:10355C000A239C46E144A045E7D1002002B01CBCE4
:10356C0090469946A246F0BD024B9946D2E7C0461A
:10357C0010000020A80A0020F0B5CE4647460E26C3
:10358C00002380B585B003AC6E442100E420238079
:10359C00338008F0F5FB0027002800D127782100A4
:1035AC00E52008F0EDFB31000500E62008F0E8FB13
:1035BC0000230543ADB29846002D04D123883288F0
:1035CC001B04984690442100E72008F0D9FB3100F9
:1035DC000500E82008F0D4FB00230543ADB2994662
:1035EC00002D04D1238832881B0499469144210074
:1035FC00E92008F0C5FB002830D0264D2100EA2038
:10360C0008F0BEFB002803D123881A0AAA77EB77AF
:10361C002100EB2008F0B4FB002805D120222388E0
:10362C00190AA9540132AB542B7F002B02D06A7FAC
:10363C00002A20D1AB7F002B02D0EA7F002A21D1B7
:10364C002023EB5C002B03D02122AA5C002A0BD197
:10365C00002005B00CBC90469946F0BD23880D4D5A
:10366C001A0A2A776B77C9E7009241464A46380016
:10367C0004F01AFDECE7009241464A46380004F08B
:10368C0013FDD7E7009241464A46380004F00CFD82
:10369C00D6E7C046280B00208A2070B582B001AC5A
:1036AC002100400008F06CFB00285DD18E2023889F
:1036BC00544D21002B7040001B0A6B7008F060FB0E
:1036CC0000285ED1162023882100DA0BFF305B081E
:1036DC002A71EB8008F054FB4B4D00285ED18B20F7
:1036EC002388210040002B8008F04AFB00285FD182
:1036FC00182023882100FF306B8008F041FB002844
:10370C0060D123882B711B0A6B718C202100400027
:10371C0008F036FB6B4606001A20991DFF3008F0A6
:10372C002FFB0643B6B2002E5FD16B46DB88228896
:10373C001B041343AB608D202100400008F020FBDC
:10374C00002845D11C20238821002B73FF301B0A35
:10375C006B7308F015FB002844D026232B4AD35C4E
:10376C00AB76002002B070BD8E20284B254D1A7907
:10377C0021002A705B7940006B7008F001FB002877
:10378C00A0D01620214B21001A7AFF302A715B89B8
:10379C00EB8008F0F5FA1C4D0028A0D08B201B4BB9
:1037AC0021009B8940002B8008F0EAFA00289FD06A
:1037BC001820164B2100DB89FF306B8008F0E0FAF3
:1037CC0000289ED0114B1A7C2A715B7C6B719CE794
:1037DC00C0231C205B01AB812100FF3008F0D0FA24
:1037EC000028BAD12388AB76BBE72223084AD35CE6
:1037FC00002B03D0E1235B02AB609CE7034B5B69BE
:10380C00AB6098E7606A0020E06A0020100000209E
:10381C00280B0020F0B5DE4657464E464546E0B52F
:10382C008BB002AB9C461E260023664433800F33BC
:10383C009A460E3B0125EC249B4604E004340135EA
:10384C00A4B2082D5ED03100200008F099FAEBB23A
:10385C00071E9946F2D13288130A1909A942EDD1F3
:10386C0051460B40EAD02B48E90080464919884460
:10387C004146A8004B7083B21800E9300A7280B23E
:10388C003100079308F07CFA4146338807981A0AEE
:10389C00EA308A704B7180B2310008F071FA4146FF
:1038AC00338807981A0AEB30CA708B7180B23100DA
:1038BC0008F066FA4146338848781A0A0A71CB71C7
:1038CC00494608F07FFE43465846197A9B784A10C1
:1038DC000240014040460597C079043404904046AC
:1038EC0080790135039040464079A4B2029040465D
:1038FC00007901904046C0780090484608F06CFF73
:10390C00082DA0D100200BB03CBC90469946A24695
:10391C00AB46F0BD28260020F8B5DE464546574696
:10392C004E463220E0B510F007F8051E67D03C4C2F
:10393C00FF202378FE2B58D16B1C984664239946A4
:10394C00384B394E9B46B1442000A246230014301C
:10395C00291B1A78CA5401338342FAD114224146E6
:10396C00300010F036FA283400211422280010F010
:10397C0039FA21788B1CDBB2012B42D9574628002F
:10398C005A37002302E00130A74234D001340170D1
:10399C00217801338A1CD2B2DBB2012AF3D89A46C1
:1039AC005A1EAA5C002A02D00133DBB29A4650465A
:1039BC000FF0C2FFF060002828D05246290010F00A
:1039CC0008FA5B465A461B78002101331370280015
:1039DC00524610F007FA2378FE2B02D11436B1456B
:1039EC00B2D128000FF0B2FF00203CBC90469946A3
:1039FC00A246AB46F8BD322331229A46D1E7FB20D2
:103A0C00F3E70122002352429A46CAE7142200210E
:103A1C00300010F0E7F928000FF098FF0E20E4E7D3
:103A2C0000DC01083C180020FC6A002010B5FFF7F0
:103A3C009BFCFFF7E9FCFFF70DFDFFF74BFDFFF7D4
:103A4C009BFDFFF729FEFFF7E5FEFFF765FF10BDB5
:103A5C00F0B5C64600B5104E3378002B16D00023B7
:103A6C00012498460D4F07E0192C01D90A239846DA
:103A7C003378ECB2A3420BD3631E5B00F95A651C7E
:103A8C000029F1D0A8B208F0ABF9EDE70023984675
:103A9C00404604BC9046F0BD100000206070002031
:103AAC000023F0B54646D6464F4698461C4BC0B54B
:103ABC0099461C4B00269A4605E0534601361B7866
:103ACC00F6B2B34225D34B46B400A41964001B5D77
:103ADC00002BF2D0454647461C3521374C44ADB23D
:103AEC00BFB261781B02C9182800013589B2ADB28A
:103AFC0008F076F90234BD4201D02378F1E7434651
:103B0C0005339BB29846534601361B78F6B2B34246
:103B1C00D9D200201CBC90469946A246F0BDC046A6
:103B2C000C0E002010000020F8B5DE4657464E461D
:103B3C0045468B46E0B51E000AAB1B7881B29A460F
:103B4C000BAB1D780CAB1B78E42098460DAB1C78A6
:103B5C000EAB91461F7808F043F95B46190A89B2FF
:103B6C00E52008F03DF95B46E62099B208F038F9FB
:103B7C004B46190A89B2E72008F032F94B46360257
:103B8C0099B25644E8202D0208F02AF94544B1B206
:103B9C00E920240208F024F9E419A9B2EA2008F07B
:103BAC001FF9A1B2EB2008F01BF900203CBC904699
:103BBC009946A246AB46F8BD8A2010B51E4C400073
:103BCC00637821785B01194308F00AF98E2021797A
:103BDC00E388C903194389B2400008F001F91620A3
:103BEC00164CFF30218808F0FBF88B2061884000D0
:103BFC0008F0F6F818206379217B1B021943FF307B
:103C0C0008F0EEF88C202189400008F0E9F81A2021
:103C1C006189FF3008F0E4F88D20637B21791B0269
:103C2C001943400008F0DCF81C20A17EFF3008F09E
:103C3C00D7F8002010BDC046606A0020E06A002062
:103C4C00F0B5C646124F00B534220021380010F0F2
:103C5C00C9F8104E33789846002B15D00023012458
:103C6C0098460225192C01D90A2398463378ECB2D0
:103C7C00A34209D3631E5B00F95A651C0029F1D0DD
:103C8C00A8B208F0ADF8EDE7404604BC9046F0BD94
:103C9C0060700020100000200E2370B512248EB02E
:103CAC0003AD6B446C4400932A0006AB05A90120BC
:103CBC0008F050FB04AA08AB07A90094022008F0F6
:103CCC0049FB012300260A932B8809A9059809931F
:103CDC000B960DF0D7FC02230B93238809A90898A7
:103CEC0009930A960DF0CEFC2988002205980DF058
:103CFC0069FE05200AF01CF8218808980DF05CFE7E
:103D0C0003000020002B0FD12988012205980DF00B
:103D1C0059FE05200AF00CF8218808980DF04CFE8D
:103D2C00013843425841C0B20EB070BD044B10B5BF
:103D3C009968FCF7E1F943425841C0B210BDC04646
:103D4C00A0000020F8B5DE4657464E4645462349AE
:103D5C00E0B50400FCF7D0F9214B06009846214B46
:103D6C0006259946204B214F9A46214B9B46002E07
:103D7C0028D039002000FCF7BFF9002824D0414698
:103D8C002000FCF7B9F9002820D049462000FCF7A8
:103D9C00B3F900281CD051462000FCF7ADF90028DF
:103DAC0018D059462000FCF7A7F9002814D0013D83
:103DBC00EDB2002DDBD100203CBC90469946A246CA
:103DCC00AB46F8BD0120F7E70220F5E70320F3E747
:103DDC000420F1E70520EFE70620EDE7C08D010890
:103DEC00C88D0108CC8D0108D08D0108C48D010847
:103DFC00D48D010870B509F04FFE09F0F3FE08F000
:103E0C00D5F808F043FA07F06FF909F01DFF07F039
:103E1C00EDFE09F04BFF08F00BFB002862D1FFF719
:103E2C003BFF002852D022230122384E322001249D
:103E3C00F25409F07DFF06F0DDFCE121344D200049
:103E4C0001344902E4B2A9600AF092F9072C07D0B8
:103E5C0020000134A968E4B20AF08AF9072CF7D1E2
:103E6C00FFF7E4FD0AF018FA07F008FE8021902015
:103E7C00284B01221B780901C005002B2DD00DF019
:103E8C00A1FDFA20400009F053FF80219020002270
:103E9C000901C0050DF096FD642009F049FF802151
:103EAC0090200122C00509010DF08CFD642009F061
:103EBC003FFF8021902000220901C0050DF082FDFA
:103ECC0003F05CFD23230122F25470BD322009F073
:103EDC002FFF06F08FFC0D4EC2E70DF073FDFA209C
:103EEC004000E4E70C4C0D4D2368AB4204D008F0C5
:103EFC000DF8002800D12560BFF34F8F084B094AFD
:103F0C00DA60BFF34F8FC046FDE7C046280B002098
:103F1C00E06A0020A80A0020F07F0020ADDEEFBE92
:103F2C0000ED00E00400FA0510B50CF0E1F805F026
:103F3C00D7FFFFF75FFF03F041FD0AF055FA10BD04
:103F4C00F0B5C646124E134B3500070001249846B7
:103F5C0000B5243582B0A74211D043461B8D2422D4
:103F6C00190A6B700323B154AC700022009300212A
:103F7C000733200004F08CF90A200AF03BFA0134D4
:103F8C00E4B2072CE7D1002002B004BC9046F0BD8F
:103F9C00280B002010000020F0B557464E46454631
:103FAC00DE46E0B583B06A464B4B00AF1D78EB1D87
:103FBC00DB08DB00D31A9D466E46002D0CD0002189
:103FCC006C1E464AE4B2013454326C44197001330D
:103FDC0011800232A342F9D1012316220138335445
:103FEC003F4B42439C463D4B400018180123023284
:103FFC0062449C460133002154249A46B3467D60AA
:10400C001388002B0DD0055BDB08A84665468D4058
:10401C00A94645464E463543055355465B44013B40
:10402C001D70013102320629EAD154220223924634
:10403C005E469B46294B7D689A445346A8465D468E
:10404C003B6043460135EDB2002B3BD06B1E9946CD
:10405C00002300229C46AB4603E00132D3B29845C4
:10406C002CD9B35C4B45F8D116211E4B51439A46C3
:10407C0000205144E246944655007D600B88002B8D
:10408C0012D0DB08013BF25C002A0DD13C687A6847
:10409C00155B0122824015437A68155354465A46E3
:1040AC000134F254E3B29A46013002310628E5D1CC
:1040BC0062460132D3B2D4469845D2D863465D46A7
:1040CC00002BBED10020BD4603B03CBC90469946A7
:1040DC00A246AB46F0BDC04610000020280B0020C5
:1040EC001C0F00201E0F0020F0B5DE464E46454644
:1040FC005746E0B591B003AC05000E000191322299
:10410C00002120000FF06EFE1A22002162480FF0F1
:10411C0069FE00212420614B6A1E9C469B18195491
:10412C001972162353435E4A023393465B449946F5
:10413C001A002338B1B21388002B03D0DB088B4252
:10414C0000D199E0013002320728F4D1554B19788F
:10415C000123002900D19AE00822624490460022F3
:10416C006646FF27924624369D4205D040465A1E8D
:10417C0087545046B218107001338B42F4DD08237B
:10418C0063440025984601220023E05C0133024081
:10419C008B42FADB002A00D07CE063461A7A237843
:1041AC001000002B00D0FF200025002301E0424628
:1041BC009A5C904204D9E65C002E01D11000DDB26D
:1041CC0001338B42F3DB0135019BEDB29D4223D0D1
:1041DC0001236F1EE35516235E467B430E369A1C55
:1041EC005A44F618674400911388002B0FD0DB0853
:1041FC00DBB2013BE05C002809D1387A6344013022
:10420C00197AC0B2814202D9242118725D5402324B
:10421C00B242E9D10099B6E7013B242263449A5C8F
:10422C000023002A01D10BE00A001B49581CCD5475
:10423C0063469B18233319781500C3B20029F3D1B8
:10424C0001204C46019B63442288002A08D0124D61
:10425C00D979AC46614401390978D208914214D01D
:10426C00013002340728EFD1002011B03CBC90463D
:10427C009946A246AB46F0BD019901220B0063445E
:10428C00DA71054BC0B21970EFE7C0B2EDE75B42D3
:10429C000025C2E76B1EC0E7A86B0020A80B00200E
:1042AC001C0F0020100000205C4BF0B51C00454694
:1042BC004E46DE46574640342200E0B59846584BF1
:1042CC00070023CB23C20125196885B011609B8898
:1042DC006D4293802100322300951122380009F0A1
:1042EC00F5FE504B012699463200494620000FF04E
:1042FC00A5FF2000FBF70AFF013682B2009532239E
:10430C002100380009F0E2FE072EEDD13223009592
:10431C0003224549380009F0D9FE444B1B78002B89
:10432C006CD0434B45469B4601235B429846414B20
:10433C0000249A46404B40359946631C1A003F496D
:10434C00280003930FF07AFF2800FBF7DFFE4346AB
:10435C0082B2009329003223380009F0B7FE1623ED
:10436C005C435B461B5B05225900C918344B490062
:10437C009C46280061440FF0B6FF4346052200938B
:10438C0029003223380009F0A1FE43460122009394
:10439C002C493223380009F099FE5B46A61C0E33DB
:1043AC005E441C1911E0494628000FF047FF280015
:1043BC00FBF7ACFE434682B200932900322338004F
:1043CC00023609F083FEA6420AD03288002AEAD0CF
:1043DC000723514613402800D2080FF02FFFE6E7C1
:1043EC0043460222009318493223380009F06EFE2E
:1043FC006B461C7B0D4B1B78A3429ED801235B4262
:10440C000093012233331149380009F05FFE05B0E7
:10441C003CBC90469946A246AB46F0BDA80B00208A
:10442C00D88D0108EC8D0108789C01081000002043
:10443C001C0F0020048E0108008E0108F48D010869
:10444C009C860108E88D0108108F010874B40108DE
:10445C00F0B54546DE4657464E463449E0B5403148
:10446C000A00334B824631CB31C231CB31C21B688F
:10447C0083B0136001235B4200931B2233335046FD
:10448C0009F024FE2B4B1B78002B35D001239946C9
:10449C00294B9846294B9B464B468026234F5D1E45
:1044AC006D0000233602403702E023000A2C1BD09B
:1044BC00310042461941525B5C1C1142F5D023007D
:1044CC004A46594638000FF0B9FE3800FBF71EFE7D
:1044DC0001235B4282B2009339003333504609F01A
:1044EC00F5FD23000A2CE3D14B460133DBB2994690
:1044FC00104B1B784B45CFD20C49114B40310A0065
:10450C0031CB31C231CB31C211CB11C201235B4251
:10451C0000931F223333504609F0D8FD03B03CBC46
:10452C0090469946A246AB46F0BDC046A80B00206B
:10453C000C8E01081000002060700020288E0108ED
:10454C003C8E0108F0B5DE464E4645465746E0B572
:10455C0085B002900AF056F800230400974D0370C2
:10456C00974B40351A78974928009A460FF066FE0B
:10457C00290020000FF082FE934B94491A7C2800EE
:10458C0098460FF05BFE290020000FF077FE062303
:10459C00002200938E49043B28000FF04FFE2900A7
:1045AC0020000FF06BFE8B4A8B4928000FF046FE63
:1045BC00290020000FF062FE884A894928000FF07C
:1045CC003DFE290020000FF059FE2A00854B43CBFD
:1045DC0043C21968200011609988012691809B794B
:1045EC00290093710FF04AFE7F4B99467F4B9B46F7
:1045FC003200494628000FF021FE290020000FF060
:10460C003DFE43461433F35C042B0BD85A469B00F7
:10461C00D3589F462A00764B83CB83C283CB83C26D
:10462C001B8813802900200001360FF027FE072E6F
:10463C00DED12A006F4BA04643CB43C243CB43C2CF
:10464C00290020000FF01AFE6B4B6C4E01259B4687
:10465C001DE0706A06F018FD5A46AB00043B0400DE
:10466C00D05806F011FD40239946544B2A009C4625
:10467C00E14400902300624948460FF0DFFD01350C
:10468C00494640460FF0FAFD3836072D11D03368F5
:10469C00002BDED1494C2A0040345A4920000FF03F
:1046AC00CDFD0135210040460FF0E8FD3836072DD1
:1046BC00EDD14046FBF72AFD444605008026524BBF
:1046CC0002221900201899460FF083FBA81C1D220A
:1046DC0020184E490FF07DFB4D4B384F98464D4BF3
:1046EC001E350395002236029B46403702E02A0015
:1046FC00062D16D0534641461B78551C013B5B00DA
:10470C00CB5A310011411942F1D02A0059463800D8
:10471C000FF094FD390020000FF0B0FD2A00062D9B
:10472C00E8D12000FBF7F2FC6B469B8905002018B2
:10473C00AB423CD0032249460FF04BFB029B002BB3
:10474C000BD02000FBF7E2FC01235B4282B200930A
:10475C0021003333029809F0B9FC05B03CBC9046FB
:10476C009946A246AB46F0BD2A002B4B83CB83C2A5
:10477C0058E72A00294B83CB83C203CB03C21B7897
:10478C0013704FE72B00264A83CA83C383CA83C3A3
:10479C00116819609188998092799A7142E7214B3E
:1047AC001A682A609A88AA809B79AB713AE705222D
:1047BC001D490FF00EFB281D2018BBE7A80B00208D
:1047CC00A80A00205C8E0108280C0020788E0108B5
:1047DC00948E0108B48E0108C08E0108D88E010891
:1047EC00E48E0108008F0108148F0108F085010880
:1047FC00488F0108848F0108B8190020DC220020A2
:10480C00B88F01089C8F0108108F0108E88F0108F0
:10481C0060700020089001083C8F0108248F01086B
:10482C00648F01081C8F010810900108F0B5C64672
:10483C00294900B50600FBF75FFC00282CD027495E
:10484C003000FBF759FC00282BD033789846232BEB
:10485C0030D0234B1F78002F0FD00024214D29007E
:10486C003000FBF749FC002802D14346002B1AD13B
:10487C000134E4B20A35A742F1D100241A4D38357F
:10488C0029003000FBF738FC00280ED001340A3523
:10489C000A2CF5D1642001E0134B187804BC904627
:1048AC00F0BDFF20FAE720B2F8E7FE2024022043F7
:1048BC0000B2F3E7701C0EF0CCFFC3B2002B03D098
:1048CC00074A12789A4204D2074A662012789A4212
:1048DC00E4D118B2E2E7C046189001081C90010818
:1048EC00100000200C0E0020A80A0020F0B5C646CF
:1048FC002C4C070026000D0000B5103621002800B6
:10490C00FBF7FAFB002840D00434A642F6D1264B24
:10491C001B78012B14D9254C9E00F6182300760029
:10492C000A3BF61802E00A34B44209D021002800F0
:10493C00FBF7E2FB0028F6D1072004BC9046F0BD43
:10494C001B4E34009C36383421002800FBF7D4FB76
:10495C000028F1D00A34A642F6D1164B164C9846D4
:10496C00DC6104E043466468DC61002C0FD02368F2
:10497C001E683000FBF7CAFB3100020028000FF064
:10498C00A1FC0028EED10820D7E70620D5E7B80017
:10499C00C0190A4F40002900C0190FF08BFCFFF71B
:1049AC007FF8CAE74C86010810000020160E002084
:1049BC00A80A0020280C0020C80000200C0E0020A3
:1049CC00F0B54F464646D6463E4BC0B51F0038376D
:1049DC0080460E0099463C00002521003000FBF774
:1049EC008BFB00282AD001350A340A2DF5D1364C20
:1049FC002500103521003000FBF77EFB002851D03C
:104A0C000434A542F6D1314B1B78012B20D9304C04
:104A1C009D00ED1823006D000A3BED1802E00A34EE
:104A2C00A54215D021003000FBF766FB0028F6D11B
:104A3C0007201CBC90469946A246F0BD0122474671
:104A4C00AA40013F7F004F44BB881343BB80F0E773
:104A5C00204B214C9A461C6204E0534664681C624D
:104A6C00002C0DD023681D682800FBF74FFB290094
:104A7C00020030000FF026FC0028EED10820D8E709
:104A8C003B78002B10D001340A370A2CF8D1802344
:104A9C00DB004746013F7F004F44BA880020134398
:104AAC00BB80C6E70620C4E74B46A000001938338C
:104ABC004000181831000FF0FDFB0123A3401BB27E
:104ACC00E7E7C046A80A00204C8601081000002029
:104ADC00160E0020280C0020C8000020F0B545461A
:104AEC0057464E46DE46E0B5824F83B00CAC40CC08
:104AFC003D7801902478A846002E59D020253D7091
:104B0C0065426C41012522206442AC43A346844695
:104B1C00D5B2A946784DE344AA4229D824224C4662
:104B2C00764DAC542A0024325370082B14D8744A96
:104B3C009B00D3589F460B682435AB710B681B1236
:104B4C00EB710B681B142B720B681B160A2259464F
:104B5C0001986B7203F0FCFD434600203B70002E65
:104B6C0028D103B03CBC90469946A246AB46F0BD5A
:104B7C002420844600208246604654465F4DAC4457
:104B8C002C5460464370100E824660465446847026
:104B9C00100C824660465446120A0271C47062467A
:104BAC0048465071082BD7D8564A9B00D3589F467D
:104BBC003E70A5E70BF0B4FA24240700524D285D93
:104BCC000028CED00BF0ACFAC01BB042F7D3285D56
:104BDC00C7E70B782435032220210198AB7003F032
:104BEC00B7FDB9E70B782435072259460198AB710C
:104BFC0003F0AEFDB0E70B682435AB710B681B0AF4
:104C0C00EB710B681B0C2B720B681B0E9EE70B7861
:104C1C002435AB704B780A22EB708B7801982B7192
:104C2C00CB786B710B79AB714B79EB718B792B72F8
:104C3C00CB7920216B7203F08BFD8DE70B7824353B
:104C4C00AB714B780E22EB718B7801982B72CB7871
:104C5C006B720B79AB724B79EB728B792B73CB79C3
:104C6C0059466B7303F074FD76E70B882435AB71F2
:104C7C000B881BB21B12082259460198EB7103F0EA
:104C8C0067FD69E70B882435AB710B881B0AF2E7CB
:104C9C000B682435AB700B681B12EB700B681B1484
:104CAC002B710B681B160622202101986B7103F0E7
:104CBC004FFD51E70B682435AB700B681B0AEB708A
:104CCC000B681B0C2B710B681B0EECE70B88243547
:104CDC00AB700B881BB21B12042220210198EB70C5
:104CEC0003F036FD38E70B882435AB700B881B0AB4
:104CFC00F2E7C046606A0020FFFFFF07280B002088
:104D0C000486010828860108280C002030B50121F2
:104D1C0083B01E200EF0A4FD040009480949027D51
:104D2C00058B837D013A0195407D92008A18009095
:104D3C0012692C3120000FF081FA200003B030BD35
:104D4C00E06A00204C86010800B5084B0A0019786F
:104D5C00012385B00393023B029301930333009329
:104D6C000B0003F019FD05B000BDC046A80A0020D9
:104D7C00002330B504000D0087B004930393029315
:104D8C0001930093002200210020FEF7CDFE601E4F
:104D9C00C30012491B1ADB005B586A1E002B12D091
:104DAC00D3009B1ADB005B582000002B04D106F0CB
:104DBC00B1FE002007B030BD06F0ACFE280006F0B6
:104DCC00A9FE0020F6E7D3009B1ADB005B58002BF2
:104DDC0001D02800EBE76820ECE7C046DC2200207D
:104DEC00F0B5D64646464F46C0B5274E274D3378CC
:104DFC008046013B9C00E418A4002C19E3689A46F9
:104E0C00FBF784F953468146002B2ED05046FBF716
:104E1C007DF9494602310700091850460FF014F885
:104E2C003278E060013A93009B189B00EB18D8682D
:104E3C007A1C801841460FF03DFA3278013A930003
:104E4C009B1813229B00EB18DB68DA553378013B77
:104E5C009800C01880002818C368002B0DD00020C3
:104E6C001CBC90469946A246F0BD01300EF064FD84
:104E7C004146E0600FF01EFAF1E7142200210EF01B
:104E8C00B1FF0E20ECE7C0463C180020FC6A002065
:104E9C0070B504780500002C0DD003260EF03EFDF5
:104EAC00001942783240012A00D120342C7001358F
:104EBC002C78002CF2D170BDF0B557464E46DE462C
:104ECC004546E0B5D84E8BB034780700052C67D03A
:104EDC00A300D64D181980009A462B18994600232A
:104EEC004A46023013802818042200210EF07AFF63
:104EFC003B78622B02D1BB782E2B57D0331D9846B2
:104F0C00180039000FF0D6F9C94C4046210010F0BA
:104F1C0051F821000700002010F04CF821008046C9
:104F2C00002010F047F80400002F2FD03800FEF7B7
:104F3C00FDFE4346071E36D0002B24D0002C25D076
:104F4C002000FEF7F3FE00286BD0042233789C007F
:104F5C009946E3189B00EA54EB18DF70D871404671
:104F6C00FEF7F0FE32784C449300A4009B182C19E9
:104F7C009B006070ED186B78002B07D0002301327A
:104F8C003270984604E0002C00D17FE067239846ED
:104F9C0040460BB03CBC90469946A246AB46F0BD91
:104FAC000E239846F4E7002BC8D1EFE77B78303B13
:104FBC00DBB29B46002398465B46062BE8D8494655
:104FCC00012358460B80FB1C887007229949180056
:104FDC0007930FF077F900283DD00E2296490798D9
:104FEC000FF070F900285ED106234A46D3705B4659
:104FFC00DA00924B5A449B181B7A9B070ED4012360
:10500C000593434601220493039302930193009367
:10501C0000210023584607F0DFFB3478013434704C
:10502C00B6E73278200093009B1803229B00EA54C9
:10503C00EB18DF700EF002FCFEF7B6F8337809902F
:10504C009C00E018800006302818042209A9994613
:10505C000EF0BFFE83E705234946CB705946774BCC
:10506C00CA005A449B1801221B7A1A42D6D101233A
:10507C0005934346002204930393029301930093F8
:10508C000121584607F0A8FB3478C7E70221327893
:10509C0093009B189B00E954ED1800230132E87033
:1050AC003270984674E70C22654907980FF00AF99C
:1050BC00002831D15B46DA00604B5A449B189A7831
:1050CC00002A63D0DA78002A7DD00C221B79904616
:1050DC00002BA3D12300380053449B00EB18013A5A
:1050EC00DA700F300EF0AFFB3278C0B293009B1821
:1050FC009B00ED1801232871059300230022002149
:10510C0004930393029301900093584607F064FBB9
:10511C0000233478984681E70D224A4907980FF00E
:10512C00D1F8002800D079E75B46444AD900CB1867
:10513C00D318587900285ED09B79002B00D183E0DE
:10514C0059445218D37999460D2398464B46002B57
:10515C0000D063E71433380098465C43063B2C19A7
:10516C00E37010300EF06FFB42463378C0B25343FD
:10517C00ED180123287105934B4603930293019379
:10518C000093002304901A001900BEE709234A4635
:10519C003800D3700F300EF056FB3178C3B28A0052
:1051AC0052189200AD1801222B71059242460492BE
:1051BC00039202920192009200220021584607F0BD
:1051CC000BFB34782AE70A234A463800D3700F3099
:1051DC000EF039FB3278C0B293009B189B00ED188F
:1051EC000123287105934346009004930393029383
:1051FC0001930023E0E70C234A463800D3701030AB
:10520C000EF021FB3278C0B293009B189B00ED1876
:10521C000123287105934346029004930393019351
:10522C0000930023C8E7C0463C180020FC6A00200D
:10523C00188F0108AC9C0108E09401082826002076
:10524C00F09401080095010823000D223800534406
:10525C009B00EB18DA7010300EF0F5FA3278C0B211
:10526C0093009B189B00ED180123287105930023D4
:10527C00039004930293019300930022002144E7CE
:10528C00F0B5DE46574645464E468A46E0B58BB0ED
:10529C00029015000021092207A81C000EF0A2FDA7
:1052AC00CD4B56469846CD4BBA469B462DE0062232
:1052BC00CB4928000FF006F8002857D0022F00D158
:1052CC00D2E02E2128000EF0E7FF071E07D003388E
:1052DC00032259460EF0F6FF002800D079E09922FF
:1052EC0021009200280009F015F982462378002B42
:1052FC0039D12000FAF70AFF0021020020000EF03D
:10530C0071FD5346002B00D1D0E12800FFF7C0FD02
:10531C003623994643464A469F5C002FC7D1333A01
:10532C00B04928000EF0CEFF071ECAD1E81CFFF7CB
:10533C00C3FD002800D09FE0022342464946535447
:10534C000B332370002E27D000239A462000FAF747
:10535C00DDFE01235B4282B20093210033330298BD
:10536C0008F0B4FEC5E7002EC3D0EFE743464A462B
:10537C0098541A78013A93009B189B4A9B00D318B7
:10538C0001221A7405F072FD4122984920000EF09A
:10539C0020FD2378002BD5D12000FAF7B7FE002191
:1053AC0002002000B2460EF01DFD0922002107A8C4
:1053BC000EF018FD36234246D35C002B02D1534627
:1053CC00002B6AD10BB03CBC90469946A246AB462A
:1053DC00F0BD0EF0A3FA7B78C01843785B0700D5BC
:1053EC007DE77A1B290007A80EF07DFF07A8FFF7C1
:1053FC001DFA7F4B03901B780593984257D0039B63
:10540C00642B00D1DAE0039B662B00D1DDE07B1C22
:10541C000493039BFF2B00D18BE06B461B7B9946BF
:10542C00FE2B00D102E10622724904980EF04AFFCD
:10543C00002844D1704B00221870192148469A4616
:10544C0003F086F9642008F0D5FF6C4B49461A78B6
:10545C00674B1878002304F0C1FD53461B78602B72
:10546C0000D195E0237895E72800FFF7B9FC0028D8
:10547C000CD10D23237065E75222614920000EF0F8
:10548C00A8FC43464A469F54237883E752225C4942
:10549C0020000EF09EFC23787CE701235B420093F6
:1054AC00382233335749029808F010FE8AE79922C4
:1054BC00781C9200210009F02DF8824616E728008E
:1054CC00FAF724FE070007A8FAF720FE82467A1E98
:1054DC00121A04994C480EF006FF2800FAF716FE33
:1054EC0053460138C21A92B21721484603F030F9DC
:1054FC00039A464920000EF0A1FE23782000002BD1
:10550C000DD0FAF703FE0200002E0BD0012382B25D
:10551C00009321003133029808F0D8FD2000FAF7EF
:10552C00F5FD0200002120000EF05CFC324B9A4687
:10553C0093E71A22002136480EF054FC2800FAF7A3
:10554C00E5FD070007A8FAF7E1FD8146013F3A1A8D
:10555C00049F2D4839000EF0C6FE2800FAF7D6FD40
:10556C004B46C31A9BB21722FF21059803F0AAF8E9
:10557C00992221009200380008F0CCFF82462000CE
:10558C00FAF7C4FD1D22201822490EF022FCADE6CC
:10559C00FA21012089000AF04FFB1F4B1B78002BCE
:1055AC0000D15FE71D4A1E49138820000133138088
:1055BC00039B22000EF042FE2378EBE627221949CA
:1055CC0020000EF006FC2378E4E625221649200084
:1055DC000EF0FFFB2378DDE63C180020B4950108A3
:1055EC006895010810950108FC6A00207095010867
:1055FC00A80A002054960108606A0020380C00208C
:10560C0014950108A09601084C0B00205C9601082B
:10561C00F00D0020089601084C0C0020DC21002025
:10562C0080960108B8950108E0950108404637229C
:10563C00039B00211F12FBB283541D3A1C48039399
:10564C000EF0D0FB2800FAF761FD070007A8FAF767
:10565C005DFD8146013F3A1A049916480EF043FE4F
:10566C002800FAF753FD4F46C31B9BB21722039930
:10567C00059803F027F8104B104A1B784146013B64
:10568C005B009B5A37228A5C1341DB0706D407ABBD
:10569C0022000B4920000EF0D1FD27E699222100B3
:1056AC009200049808F036FF8246F0E7B2467CE69A
:1056BC00F00D00204C0B0020A80A0020AC0A0020A2
:1056CC0028960108F0B5DE46454657464E46E0B5ED
:1056DC0087B002AB9C460F2501210023654449424B
:1056EC0001202B700AF0A8FA08F08CFFE123504A35
:1056FC00039092681B039A4200D194E04D4B012415
:10570C001E0019788C4205D0E1212000090308F015
:10571C002FFD31780134E4B2072CF3D1B146464861
:10572C00464B04001A88383453009B18444A5B00DB
:10573C009B18444A834612782000009142490EF08F
:10574C007DFD4B46A4224149920018780A2308F0AB
:10575C00EFFC2000FAF7DAFC4B4682B221001878F5
:10576C000A2308F0E5FC14229446394B002698468F
:10577C00384B394C63449A4660239C460027E344DB
:10578C0001E009F07FF82378012BFAD14B46424611
:10579C0018782900431ED25C27702A704246D754D1
:1057AC000A23012208F0C4FC2B780D2B1BD00A2BEA
:1057BC00E7D0082B0DD07F2B0BD01A00203A5E2A95
:1057CC00DFD8312EDDDC234A92190136137576B2FF
:1057DC00D7E7002ED5D01F4A013E9446F3B25EB2F5
:1057EC0063441F75CDE74B46022218781B490A23E8
:1057FC0008F09EFC002E11D04B4652461878012121
:10580C00039BFFF73DFD514658460EF053FD3222E7
:10581C00002150460EF0E6FA0026B2E759465046F3
:10582C000EF048FDE8E7034B9946197877E7C04638
:10583C00E06A0020380C00203C18002038000020C2
:10584C009C860108A80A0020DC960108089701082C
:10585C00C81E0020BC1800203A180020F4AE010825
:10586C00F8B51A4B0C001A78013A93009B18184A99
:10587C009B00D318DB68002B18D0164EB56C002D8E
:10588C0016D02B78002B0ED0132128000EF004FD1F
:10589C00071E10D0421B290020000EF024FD012011
:1058AC000137B764F8BDB3640020FBE70020F9E7CB
:1058BC00B0640500E5E7290020000EF0FBFC200099
:1058CC00FAF724FC2D18B5640120EBE73C180020F6
:1058DC00FC6A0020BC180020830030B518182E4933
:1058EC0080000B5C83B0012B20D0032B1BD10C1838
:1058FC00E2780630013A53009B18284A9B009B58CB
:10590C004118042201A81D680EF063FA6378062B77
:10591C0009D8234A9B00D3589F46291C0198FAF7B3
:10592C00EBFD002814D1002003B030BD081882789C
:10593C00C078D3009B181B4A9B5C181A43425841F1
:10594C00C0B2F1E7291C0198FAF7BCFD0028EAD196
:10595C000021281CFAF7B6FD43425841E4E7291C04
:10596C000198FAF7AFFD431E9841DDE7291C019819
:10597C00FAF7AEFD431E9841D6E7291C0198FAF7B9
:10598C00B1FD431E9841CFE7291C0198FAF7BEFDE3
:10599C000028DDD1C7E7C046FC6A0020A00000202B
:1059AC005C87010828260020F8B5DE464E464546A1
:1059BC005746E0B508F026FE234B060098461B78A8
:1059CC00002B39D0214B224F9B4620239A46214B4A
:1059DC00214D00244C37994606E0434601341B7890
:1059EC00A4B21435A34227D92B7C002BF5D0E0B2FE
:1059FC00FFF772FF0028F0D05B4652461A700EE09B
:105A0C004B463A00187800213300FFF739FC300080
:105A1C00FAF77CFB0021020030000EF0E3F93900AC
:105A2C00E868FFF71DFF0028EAD1434601341B78D4
:105A3C00A4B21435A342D7D800203CBC904699465A
:105A4C00A246AB46F8BDC0463C180020606A002058
:105A5C00BC180020380C0020FC6A00200020704785
:105A6C0010B5034B03491A880EF0E8FB002010BD5B
:105A7C00CCF7FF1F9C99010810B50023040082B0DD
:105A8C0001A968460093019307F01EF869462000AF
:105A9C000EF010FC0198FDF735FB02000B00200006
:105AAC0002490EF0CBFB002002B010BDBC990108DE
:105ABC0010B50023040082B001A96846009301933D
:105ACC0007F002F8694620000EF0F4FB0098FDF791
